{
  "_format": "hh-sol-artifact-1",
  "contractName": "ExecutionFeeCollector",
  "sourceName": "contracts/ExecutionFeeCollector.sol",
  "abi": [
    {
      "inputs": [
        {
          "internalType": "address",
          "name": "_treasury",
          "type": "address"
        }
      ],
      "stateMutability": "nonpayable",
      "type": "constructor"
    },
    {
      "inputs": [],
      "name": "EnforcedPause",
      "type": "error"
    },
    {
      "inputs": [],
      "name": "ExpectedPause",
      "type": "error"
    },
    {
      "inputs": [
        {
          "internalType": "address",
          "name": "owner",
          "type": "address"
        }
      ],
      "name": "OwnableInvalidOwner",
      "type": "error"
    },
    {
      "inputs": [
        {
          "internalType": "address",
          "name": "account",
          "type": "address"
        }
      ],
      "name": "OwnableUnauthorizedAccount",
      "type": "error"
    },
    {
      "inputs": [],
      "name": "ReentrancyGuardReentrantCall",
      "type": "error"
    },
    {
      "anonymous": false,
      "inputs": [
        {
          "indexed": true,
          "internalType": "address",
          "name": "executor",
          "type": "address"
        }
      ],
      "name": "ExecutorAuthorized",
      "type": "event"
    },
    {
      "anonymous": false,
      "inputs": [
        {
          "indexed": true,
          "internalType": "address",
          "name": "executor",
          "type": "address"
        }
      ],
      "name": "ExecutorRevoked",
      "type": "event"
    },
    {
      "anonymous": false,
      "inputs": [
        {
          "indexed": true,
          "internalType": "bytes32",
          "name": "decisionId",
          "type": "bytes32"
        },
        {
          "indexed": true,
          "internalType": "address",
          "name": "agent",
          "type": "address"
        },
        {
          "indexed": false,
          "internalType": "uint256",
          "name": "tradeValue",
          "type": "uint256"
        },
        {
          "indexed": false,
          "internalType": "uint256",
          "name": "feeAmount",
          "type": "uint256"
        },
        {
          "indexed": false,
          "internalType": "bool",
          "name": "isFlatFee",
          "type": "bool"
        }
      ],
      "name": "FeeCollected",
      "type": "event"
    },
    {
      "anonymous": false,
      "inputs": [
        {
          "indexed": false,
          "internalType": "uint256",
          "name": "percentage",
          "type": "uint256"
        },
        {
          "indexed": false,
          "internalType": "uint256",
          "name": "flatFee",
          "type": "uint256"
        }
      ],
      "name": "FeeParametersUpdated",
      "type": "event"
    },
    {
      "anonymous": false,
      "inputs": [
        {
          "indexed": true,
          "internalType": "address",
          "name": "to",
          "type": "address"
        },
        {
          "indexed": false,
          "internalType": "uint256",
          "name": "amount",
          "type": "uint256"
        }
      ],
      "name": "FeesWithdrawn",
      "type": "event"
    },
    {
      "anonymous": false,
      "inputs": [
        {
          "indexed": true,
          "internalType": "address",
          "name": "previousOwner",
          "type": "address"
        },
        {
          "indexed": true,
          "internalType": "address",
          "name": "newOwner",
          "type": "address"
        }
      ],
      "name": "OwnershipTransferred",
      "type": "event"
    },
    {
      "anonymous": false,
      "inputs": [
        {
          "indexed": false,
          "internalType": "address",
          "name": "account",
          "type": "address"
        }
      ],
      "name": "Paused",
      "type": "event"
    },
    {
      "anonymous": false,
      "inputs": [
        {
          "indexed": true,
          "internalType": "address",
          "name": "newTreasury",
          "type": "address"
        }
      ],
      "name": "TreasuryUpdated",
      "type": "event"
    },
    {
      "anonymous": false,
      "inputs": [
        {
          "indexed": false,
          "internalType": "address",
          "name": "account",
          "type": "address"
        }
      ],
      "name": "Unpaused",
      "type": "event"
    },
    {
      "inputs": [],
      "name": "BASIS_POINTS",
      "outputs": [
        {
          "internalType": "uint256",
          "name": "",
          "type": "uint256"
        }
      ],
      "stateMutability": "view",
      "type": "function"
    },
    {
      "inputs": [
        {
          "internalType": "uint256",
          "name": "",
          "type": "uint256"
        }
      ],
      "name": "allDecisionIds",
      "outputs": [
        {
          "internalType": "bytes32",
          "name": "",
          "type": "bytes32"
        }
      ],
      "stateMutability": "view",
      "type": "function"
    },
    {
      "inputs": [],
      "name": "attestRegistry",
      "outputs": [
        {
          "internalType": "address",
          "name": "",
          "type": "address"
        }
      ],
      "stateMutability": "view",
      "type": "function"
    },
    {
      "inputs": [
        {
          "internalType": "address",
          "name": "executor",
          "type": "address"
        }
      ],
      "name": "authorizeExecutor",
      "outputs": [],
      "stateMutability": "nonpayable",
      "type": "function"
    },
    {
      "inputs": [
        {
          "internalType": "address",
          "name": "",
          "type": "address"
        }
      ],
      "name": "authorizedExecutors",
      "outputs": [
        {
          "internalType": "bool",
          "name": "",
          "type": "bool"
        }
      ],
      "stateMutability": "view",
      "type": "function"
    },
    {
      "inputs": [
        {
          "internalType": "bytes32[]",
          "name": "decisionIds",
          "type": "bytes32[]"
        },
        {
          "internalType": "address[]",
          "name": "agents",
          "type": "address[]"
        },
        {
          "internalType": "uint256[]",
          "name": "tradeValues",
          "type": "uint256[]"
        }
      ],
      "name": "batchCollectFees",
      "outputs": [],
      "stateMutability": "payable",
      "type": "function"
    },
    {
      "inputs": [
        {
          "internalType": "uint256",
          "name": "tradeValue",
          "type": "uint256"
        }
      ],
      "name": "calculateFee",
      "outputs": [
        {
          "internalType": "uint256",
          "name": "feeAmount",
          "type": "uint256"
        },
        {
          "internalType": "bool",
          "name": "isFlatFee",
          "type": "bool"
        }
      ],
      "stateMutability": "view",
      "type": "function"
    },
    {
      "inputs": [
        {
          "internalType": "bytes32",
          "name": "decisionId",
          "type": "bytes32"
        },
        {
          "internalType": "address",
          "name": "agent",
          "type": "address"
        },
        {
          "internalType": "uint256",
          "name": "tradeValue",
          "type": "uint256"
        }
      ],
      "name": "collectFee",
      "outputs": [],
      "stateMutability": "payable",
      "type": "function"
    },
    {
      "inputs": [],
      "name": "feePercentage",
      "outputs": [
        {
          "internalType": "uint256",
          "name": "",
          "type": "uint256"
        }
      ],
      "stateMutability": "view",
      "type": "function"
    },
    {
      "inputs": [
        {
          "internalType": "bytes32",
          "name": "",
          "type": "bytes32"
        }
      ],
      "name": "feeRecords",
      "outputs": [
        {
          "internalType": "address",
          "name": "agent",
          "type": "address"
        },
        {
          "internalType": "uint256",
          "name": "tradeValue",
          "type": "uint256"
        },
        {
          "internalType": "uint256",
          "name": "feeAmount",
          "type": "uint256"
        },
        {
          "internalType": "bool",
          "name": "isFlatFee",
          "type": "bool"
        },
        {
          "internalType": "uint256",
          "name": "timestamp",
          "type": "uint256"
        },
        {
          "internalType": "bytes32",
          "name": "decisionId",
          "type": "bytes32"
        }
      ],
      "stateMutability": "view",
      "type": "function"
    },
    {
      "inputs": [],
      "name": "flatFeeEth",
      "outputs": [
        {
          "internalType": "uint256",
          "name": "",
          "type": "uint256"
        }
      ],
      "stateMutability": "view",
      "type": "function"
    },
    {
      "inputs": [
        {
          "internalType": "address",
          "name": "agent",
          "type": "address"
        }
      ],
      "name": "getAgentFeeHistory",
      "outputs": [
        {
          "internalType": "bytes32[]",
          "name": "",
          "type": "bytes32[]"
        }
      ],
      "stateMutability": "view",
      "type": "function"
    },
    {
      "inputs": [],
      "name": "getFeeStats",
      "outputs": [
        {
          "internalType": "uint256",
          "name": "totalFlatFees",
          "type": "uint256"
        },
        {
          "internalType": "uint256",
          "name": "totalPercentageFees",
          "type": "uint256"
        },
        {
          "internalType": "uint256",
          "name": "flatFeeCount",
          "type": "uint256"
        },
        {
          "internalType": "uint256",
          "name": "percentageFeeCount",
          "type": "uint256"
        }
      ],
      "stateMutability": "view",
      "type": "function"
    },
    {
      "inputs": [],
      "name": "owner",
      "outputs": [
        {
          "internalType": "address",
          "name": "",
          "type": "address"
        }
      ],
      "stateMutability": "view",
      "type": "function"
    },
    {
      "inputs": [],
      "name": "pause",
      "outputs": [],
      "stateMutability": "nonpayable",
      "type": "function"
    },
    {
      "inputs": [],
      "name": "paused",
      "outputs": [
        {
          "internalType": "bool",
          "name": "",
          "type": "bool"
        }
      ],
      "stateMutability": "view",
      "type": "function"
    },
    {
      "inputs": [],
      "name": "renounceOwnership",
      "outputs": [],
      "stateMutability": "nonpayable",
      "type": "function"
    },
    {
      "inputs": [
        {
          "internalType": "address",
          "name": "executor",
          "type": "address"
        }
      ],
      "name": "revokeExecutor",
      "outputs": [],
      "stateMutability": "nonpayable",
      "type": "function"
    },
    {
      "inputs": [
        {
          "internalType": "uint256",
          "name": "_percentage",
          "type": "uint256"
        },
        {
          "internalType": "uint256",
          "name": "_flatFee",
          "type": "uint256"
        }
      ],
      "name": "setFeeParameters",
      "outputs": [],
      "stateMutability": "nonpayable",
      "type": "function"
    },
    {
      "inputs": [
        {
          "internalType": "address",
          "name": "_treasury",
          "type": "address"
        }
      ],
      "name": "setTreasury",
      "outputs": [],
      "stateMutability": "nonpayable",
      "type": "function"
    },
    {
      "inputs": [],
      "name": "totalFeesCollected",
      "outputs": [
        {
          "internalType": "uint256",
          "name": "",
          "type": "uint256"
        }
      ],
      "stateMutability": "view",
      "type": "function"
    },
    {
      "inputs": [
        {
          "internalType": "address",
          "name": "newOwner",
          "type": "address"
        }
      ],
      "name": "transferOwnership",
      "outputs": [],
      "stateMutability": "nonpayable",
      "type": "function"
    },
    {
      "inputs": [],
      "name": "treasury",
      "outputs": [
        {
          "internalType": "address",
          "name": "",
          "type": "address"
        }
      ],
      "stateMutability": "view",
      "type": "function"
    },
    {
      "inputs": [],
      "name": "unpause",
      "outputs": [],
      "stateMutability": "nonpayable",
      "type": "function"
    },
    {
      "inputs": [],
      "name": "withdrawFees",
      "outputs": [],
      "stateMutability": "nonpayable",
      "type": "function"
    },
    {
      "stateMutability": "payable",
      "type": "receive"
    }
  ],
  "bytecode": "0x60806040526032600155662386f26fc1000060025534801561001f575f80fd5b50604051611b5b380380611b5b83398101604081905261003e91610175565b338061006457604051631e4fbdf760e01b81525f60048201526024015b60405180910390fd5b61006d81610126565b5060017f9b779b17422d0df92223018b32b4d1fa46e071723d6817e2486d003becc55f00556001600160a01b0381166100e85760405162461bcd60e51b815260206004820152601860248201527f496e76616c696420747265617375727920616464726573730000000000000000604482015260640161005b565b600380546001600160a01b0319166001600160a01b0392909216919091179055335f908152600660205260409020805460ff191660011790556101a2565b5f80546001600160a01b038381166001600160a01b0319831681178455604051919092169283917f8be0079c531659141344cd1fd0a4f28419497f9722a3daafe3b4186f6b6457e09190a35050565b5f60208284031215610185575f80fd5b81516001600160a01b038116811461019b575f80fd5b9392505050565b6119ac806101af5f395ff3fe608060405260043610610164575f3560e01c8063715018a6116100cd578063a001ecdd11610087578063e1f1c4a711610062578063e1f1c4a714610473578063f0f4426014610488578063f28ab2be146104a7578063f2fde38b146104db575f80fd5b8063a001ecdd1461042c578063d017b61214610441578063d510125114610454575f80fd5b8063715018a6146102f35780637280971e146103075780637e7f8c2b1461039c5780638456cb59146103c85780638da5cb5b146103dc57806399a5d747146103f8575f80fd5b80634d56022f1161011e5780634d56022f1461022a5780635c975abb1461024957806360c6d8ae1461027257806361d027b314610287578063643590f9146102a6578063679d86a7146102c5575f80fd5b8063181a40671461016f5780631b57c04e14610197578063294d24f6146101ac5780633940f090146101cb5780633f4ba83a14610202578063476343ee14610216575f80fd5b3661016b57005b5f80fd5b34801561017a575f80fd5b5061018460025481565b6040519081526020015b60405180910390f35b6101aa6101a536600461171a565b6104fa565b005b3480156101b7575f80fd5b506101846101c63660046117b9565b610b14565b3480156101d6575f80fd5b506005546101ea906001600160a01b031681565b6040516001600160a01b03909116815260200161018e565b34801561020d575f80fd5b506101aa610b33565b348015610221575f80fd5b506101aa610b45565b348015610235575f80fd5b506101aa6102443660046117d0565b610c87565b348015610254575f80fd5b505f54600160a01b900460ff165b604051901515815260200161018e565b34801561027d575f80fd5b5061018460045481565b348015610292575f80fd5b506003546101ea906001600160a01b031681565b3480156102b1575f80fd5b506101aa6102c036600461180b565b610d28565b3480156102d0575f80fd5b506102626102df36600461180b565b60066020525f908152604090205460ff1681565b3480156102fe575f80fd5b506101aa610dd1565b348015610312575f80fd5b506103636103213660046117b9565b60076020525f90815260409020805460018201546002830154600384015460048501546005909501546001600160a01b03909416949293919260ff9091169186565b604080516001600160a01b03909716875260208701959095529385019290925215156060840152608083015260a082015260c00161018e565b3480156103a7575f80fd5b506103bb6103b636600461180b565b610de2565b60405161018e919061182b565b3480156103d3575f80fd5b506101aa610f46565b3480156103e7575f80fd5b505f546001600160a01b03166101ea565b348015610403575f80fd5b506104176104123660046117b9565b610f56565b6040805192835290151560208301520161018e565b348015610437575f80fd5b5061018460015481565b6101aa61044f36600461186d565b610f96565b34801561045f575f80fd5b506101aa61046e36600461180b565b611301565b34801561047e575f80fd5b5061018461271081565b348015610493575f80fd5b506101aa6104a236600461180b565b611351565b3480156104b2575f80fd5b506104bb6113f8565b60408051948552602085019390935291830152606082015260800161018e565b3480156104e6575f80fd5b506101aa6104f536600461180b565b6114e7565b335f9081526006602052604090205460ff168061052057505f546001600160a01b031633145b61056b5760405162461bcd60e51b81526020600482015260176024820152762737ba1030baba3437b934bd32b21032bc32b1baba37b960491b60448201526064015b60405180910390fd5b610573611524565b61057b61154e565b848314801561058957508281145b6105cd5760405162461bcd60e51b8152602060048201526015602482015274082e4e4c2f240d8cadccee8d040dad2e6dac2e8c6d605b1b6044820152606401610562565b5f808667ffffffffffffffff8111156105e8576105e86118a0565b604051908082528060200260200182016040528015610611578160200160208202803683370190505b5090505f8767ffffffffffffffff81111561062e5761062e6118a0565b604051908082528060200260200182016040528015610657578160200160208202803683370190505b5090505f5b888110156107675760075f8b8b84818110610679576106796118b4565b9050602002013581526020019081526020015f20600401545f146106d75760405162461bcd60e51b815260206004820152601560248201527411995948185b1c9958591e4818dbdb1b1958dd1959605a1b6044820152606401610562565b6106f88686838181106106ec576106ec6118b4565b90506020020135610f56565b84838151811061070a5761070a6118b4565b60200260200101848481518110610723576107236118b4565b60200260200101821515151581525082815250505082818151811061074a5761074a6118b4565b60200260200101518461075d91906118dc565b935060010161065c565b50823410156107b85760405162461bcd60e51b815260206004820152601a60248201527f496e73756666696369656e7420746f74616c207061796d656e740000000000006044820152606401610562565b5f5b88811015610a5d576040518060c001604052808989848181106107df576107df6118b4565b90506020020160208101906107f4919061180b565b6001600160a01b03168152602001878784818110610814576108146118b4565b905060200201358152602001848381518110610832576108326118b4565b60200260200101518152602001838381518110610851576108516118b4565b6020026020010151151581526020014281526020018b8b84818110610878576108786118b4565b9050602002013581525060075f8c8c85818110610897576108976118b4565b602090810292909201358352508181019290925260409081015f20835181546001600160a01b0319166001600160a01b039091161781559183015160018301558201516002820155606082015160038201805460ff19169115159190911790556080820151600482015560a09091015160059091015560088a8a83818110610921576109216118b4565b83546001810185555f9485526020948590209190940292909201359190920155508251839082908110610956576109566118b4565b602002602001015160045f82825461096e91906118dc565b909155508890508782818110610986576109866118b4565b905060200201602081019061099b919061180b565b6001600160a01b03168a8a838181106109b6576109b66118b4565b905060200201357f5be5a65e69f606a60678d03679b03d276be75d3d2b0b9089b1e113f3d69b098e8888858181106109f0576109f06118b4565b90506020020135868581518110610a0957610a096118b4565b6020026020010151868681518110610a2357610a236118b4565b6020026020010151604051610a4d9392919092835260208301919091521515604082015260600190565b60405180910390a36001016107ba565b5082341115610af3575f33610a7285346118f5565b6040515f81818185875af1925050503d805f8114610aab576040519150601f19603f3d011682016040523d82523d5f602084013e610ab0565b606091505b5050905080610af15760405162461bcd60e51b815260206004820152600d60248201526c1499599d5b990819985a5b1959609a1b6044820152606401610562565b505b505050610b0c60015f8051602061195783398151915255565b505050505050565b60088181548110610b23575f80fd5b5f91825260209091200154905081565b610b3b611569565b610b43611595565b565b610b4d611569565b610b5561154e565b4780610b995760405162461bcd60e51b81526020600482015260136024820152724e6f206665657320746f20776974686472617760681b6044820152606401610562565b6003546040515f916001600160a01b03169083908381818185875af1925050503d805f8114610be3576040519150601f19603f3d011682016040523d82523d5f602084013e610be8565b606091505b5050905080610c2d5760405162461bcd60e51b815260206004820152601160248201527015da5d1a191c985dd85b0819985a5b1959607a1b6044820152606401610562565b6003546040518381526001600160a01b03909116907fc0819c13be868895eb93e40eaceb96de976442fa1d404e5c55f14bb65a8c489a9060200160405180910390a25050610b4360015f8051602061195783398151915255565b610c8f611569565b6101f4821115610ce15760405162461bcd60e51b815260206004820152601c60248201527f50657263656e7461676520746f6f206869676820286d617820352529000000006044820152606401610562565b6001829055600281905560408051838152602081018390527f1ad8b45a83c0b03428f4eb1fc49e5e9e4ee40bea305c8dfde416980ea7d90c98910160405180910390a15050565b610d30611569565b6001600160a01b038116610d865760405162461bcd60e51b815260206004820152601860248201527f496e76616c6964206578656375746f72206164647265737300000000000000006044820152606401610562565b6001600160a01b0381165f81815260066020526040808220805460ff19166001179055517f52762435f58790076157ea2a4914a5a4d0aa0eb421588891377692f7fd3bc0829190a250565b610dd9611569565b610b435f6115e9565b60605f805b600854811015610e5057836001600160a01b031660075f60088481548110610e1157610e116118b4565b5f91825260208083209091015483528201929092526040019020546001600160a01b031603610e485781610e4481611908565b9250505b600101610de7565b505f8167ffffffffffffffff811115610e6b57610e6b6118a0565b604051908082528060200260200182016040528015610e94578160200160208202803683370190505b5090505f805b600854811015610f3c57856001600160a01b031660075f60088481548110610ec457610ec46118b4565b5f91825260208083209091015483528201929092526040019020546001600160a01b031603610f345760088181548110610f0057610f006118b4565b905f5260205f200154838381518110610f1b57610f1b6118b4565b602090810291909101015281610f3081611908565b9250505b600101610e9a565b5090949350505050565b610f4e611569565b610b43611638565b5f805f61271060015485610f6a9190611920565b610f749190611937565b90506002548110610f8857935f9350915050565b505060025492600192509050565b335f9081526006602052604090205460ff1680610fbc57505f546001600160a01b031633145b6110025760405162461bcd60e51b81526020600482015260176024820152762737ba1030baba3437b934bd32b21032bc32b1baba37b960491b6044820152606401610562565b61100a611524565b61101261154e565b6001600160a01b0382166110605760405162461bcd60e51b8152602060048201526015602482015274496e76616c6964206167656e74206164647265737360581b6044820152606401610562565b5f83815260076020526040902060040154156110b65760405162461bcd60e51b815260206004820152601560248201527411995948185b1c9958591e4818dbdb1b1958dd1959605a1b6044820152606401610562565b5f806110c183610f56565b91509150813410156111155760405162461bcd60e51b815260206004820152601860248201527f496e73756666696369656e7420666565207061796d656e7400000000000000006044820152606401610562565b6040805160c0810182526001600160a01b038681168252602080830187815283850187815286151560608601908152426080870190815260a087018d81525f8e81526007909652978520965187546001600160a01b0319169616959095178655915160018087019190915590516002860155905160038501805460ff19169115159190911790559151600480850191909155935160059093019290925560088054918201815582527ff3f7a9fe364faab93b216da50a3214154f22a0a2b415b23a84c8169e8b636ee3018790558154849291906111f39084906118dc565b909155505034821015611296575f6001600160a01b03851661121584346118f5565b6040515f81818185875af1925050503d805f811461124e576040519150601f19603f3d011682016040523d82523d5f602084013e611253565b606091505b50509050806112945760405162461bcd60e51b815260206004820152600d60248201526c1499599d5b990819985a5b1959609a1b6044820152606401610562565b505b60408051848152602081018490528215158183015290516001600160a01b0386169187917f5be5a65e69f606a60678d03679b03d276be75d3d2b0b9089b1e113f3d69b098e9181900360600190a350506112fc60015f8051602061195783398151915255565b505050565b611309611569565b6001600160a01b0381165f81815260066020526040808220805460ff19169055517f02dc911aaa0e4aefb4e1898cc626902c4d63f9304bb8cc1fd10c1bf23a1a7d6a9190a250565b611359611569565b6001600160a01b0381166113af5760405162461bcd60e51b815260206004820152601860248201527f496e76616c6964207472656173757279206164647265737300000000000000006044820152606401610562565b600380546001600160a01b0319166001600160a01b0383169081179091556040517f7dae230f18360d76a040c81f050aa14eb9d6dc7901b20fc5d855e2a20fe814d1905f90a250565b5f805f805f5b6008548110156114e0575f60075f6008848154811061141f5761141f6118b4565b5f91825260208083209091015483528281019390935260409182019020815160c08101835281546001600160a01b03168152600182015493810193909352600281015491830191909152600381015460ff1615801560608401526004820154608084015260059091015460a08301529091506114b85760408101516114a490876118dc565b9550836114b081611908565b9450506114d7565b60408101516114c790866118dc565b9450826114d381611908565b9350505b506001016113fe565b5090919293565b6114ef611569565b6001600160a01b03811661151857604051631e4fbdf760e01b81525f6004820152602401610562565b611521816115e9565b50565b5f54600160a01b900460ff1615610b435760405163d93c066560e01b815260040160405180910390fd5b61155661167a565b60025f8051602061195783398151915255565b5f546001600160a01b03163314610b435760405163118cdaa760e01b8152336004820152602401610562565b61159d6116a9565b5f805460ff60a01b191690557f5db9ee0a495bf2e6ff9c91a7834c1ba4fdd244a5e8aa4e537bd38aeae4b073aa335b6040516001600160a01b03909116815260200160405180910390a1565b5f80546001600160a01b038381166001600160a01b0319831681178455604051919092169283917f8be0079c531659141344cd1fd0a4f28419497f9722a3daafe3b4186f6b6457e09190a35050565b611640611524565b5f805460ff60a01b1916600160a01b1790557f62e78cea01bee320cd4e420270b5ea74000d11b0c9f74754ebdbfc544b05a2586115cc3390565b5f8051602061195783398151915254600203610b4357604051633ee5aeb560e01b815260040160405180910390fd5b5f54600160a01b900460ff16610b4357604051638dfc202b60e01b815260040160405180910390fd5b5f8083601f8401126116e2575f80fd5b50813567ffffffffffffffff8111156116f9575f80fd5b6020830191508360208260051b8501011115611713575f80fd5b9250929050565b5f805f805f806060878903121561172f575f80fd5b863567ffffffffffffffff811115611745575f80fd5b61175189828a016116d2565b909750955050602087013567ffffffffffffffff811115611770575f80fd5b61177c89828a016116d2565b909550935050604087013567ffffffffffffffff81111561179b575f80fd5b6117a789828a016116d2565b979a9699509497509295939492505050565b5f602082840312156117c9575f80fd5b5035919050565b5f80604083850312156117e1575f80fd5b50508035926020909101359150565b80356001600160a01b0381168114611806575f80fd5b919050565b5f6020828403121561181b575f80fd5b611824826117f0565b9392505050565b602080825282518282018190525f918401906040840190835b81811015611862578351835260209384019390920191600101611844565b509095945050505050565b5f805f6060848603121561187f575f80fd5b8335925061188f602085016117f0565b929592945050506040919091013590565b634e487b7160e01b5f52604160045260245ffd5b634e487b7160e01b5f52603260045260245ffd5b634e487b7160e01b5f52601160045260245ffd5b808201808211156118ef576118ef6118c8565b92915050565b818103818111156118ef576118ef6118c8565b5f60018201611919576119196118c8565b5060010190565b80820281158282048414176118ef576118ef6118c8565b5f8261195157634e487b7160e01b5f52601260045260245ffd5b50049056fe9b779b17422d0df92223018b32b4d1fa46e071723d6817e2486d003becc55f00a2646970667358221220a4a6b94b0d09d80f38aa5951cfe68440859ae116b625ab0ffdbe0b7c6e4e02fa64736f6c634300081a0033",
  "linkReferences": {},
  "deployedLinkReferences": {}
}