{
  "_format": "hh-sol-artifact-1",
  "contractName": "ATTESTRegistry",
  "sourceName": "contracts/ATTESTRegistry.sol",
  "abi": [
    {
      "inputs": [],
      "stateMutability": "nonpayable",
      "type": "constructor"
    },
    {
      "inputs": [],
      "name": "EnforcedPause",
      "type": "error"
    },
    {
      "inputs": [],
      "name": "ExpectedPause",
      "type": "error"
    },
    {
      "inputs": [],
      "name": "InvalidShortString",
      "type": "error"
    },
    {
      "inputs": [
        {
          "internalType": "address",
          "name": "owner",
          "type": "address"
        }
      ],
      "name": "OwnableInvalidOwner",
      "type": "error"
    },
    {
      "inputs": [
        {
          "internalType": "address",
          "name": "account",
          "type": "address"
        }
      ],
      "name": "OwnableUnauthorizedAccount",
      "type": "error"
    },
    {
      "inputs": [],
      "name": "ReentrancyGuardReentrantCall",
      "type": "error"
    },
    {
      "inputs": [
        {
          "internalType": "string",
          "name": "str",
          "type": "string"
        }
      ],
      "name": "StringTooLong",
      "type": "error"
    },
    {
      "anonymous": false,
      "inputs": [
        {
          "indexed": true,
          "internalType": "address",
          "name": "agent",
          "type": "address"
        },
        {
          "indexed": true,
          "internalType": "bytes32",
          "name": "identityAttestation",
          "type": "bytes32"
        },
        {
          "indexed": false,
          "internalType": "uint256",
          "name": "timestamp",
          "type": "uint256"
        }
      ],
      "name": "AgentVerified",
      "type": "event"
    },
    {
      "anonymous": false,
      "inputs": [
        {
          "indexed": true,
          "internalType": "bytes32",
          "name": "uid",
          "type": "bytes32"
        },
        {
          "indexed": true,
          "internalType": "bytes32",
          "name": "schema",
          "type": "bytes32"
        },
        {
          "indexed": true,
          "internalType": "address",
          "name": "recipient",
          "type": "address"
        },
        {
          "indexed": false,
          "internalType": "address",
          "name": "attester",
          "type": "address"
        },
        {
          "indexed": false,
          "internalType": "uint64",
          "name": "time",
          "type": "uint64"
        }
      ],
      "name": "AttestationCreated",
      "type": "event"
    },
    {
      "anonymous": false,
      "inputs": [
        {
          "indexed": true,
          "internalType": "bytes32",
          "name": "uid",
          "type": "bytes32"
        },
        {
          "indexed": true,
          "internalType": "address",
          "name": "revoker",
          "type": "address"
        },
        {
          "indexed": false,
          "internalType": "uint64",
          "name": "time",
          "type": "uint64"
        }
      ],
      "name": "AttestationRevoked",
      "type": "event"
    },
    {
      "anonymous": false,
      "inputs": [],
      "name": "EIP712DomainChanged",
      "type": "event"
    },
    {
      "anonymous": false,
      "inputs": [
        {
          "indexed": false,
          "internalType": "uint256",
          "name": "attestationFee",
          "type": "uint256"
        },
        {
          "indexed": false,
          "internalType": "uint256",
          "name": "schemaCreationFee",
          "type": "uint256"
        },
        {
          "indexed": false,
          "internalType": "uint256",
          "name": "timestamp",
          "type": "uint256"
        }
      ],
      "name": "FeesUpdated",
      "type": "event"
    },
    {
      "anonymous": false,
      "inputs": [
        {
          "indexed": true,
          "internalType": "address",
          "name": "previousOwner",
          "type": "address"
        },
        {
          "indexed": true,
          "internalType": "address",
          "name": "newOwner",
          "type": "address"
        }
      ],
      "name": "OwnershipTransferred",
      "type": "event"
    },
    {
      "anonymous": false,
      "inputs": [
        {
          "indexed": false,
          "internalType": "address",
          "name": "account",
          "type": "address"
        }
      ],
      "name": "Paused",
      "type": "event"
    },
    {
      "anonymous": false,
      "inputs": [
        {
          "indexed": true,
          "internalType": "address",
          "name": "agent",
          "type": "address"
        },
        {
          "indexed": false,
          "internalType": "uint256",
          "name": "newScore",
          "type": "uint256"
        },
        {
          "indexed": false,
          "internalType": "uint256",
          "name": "timestamp",
          "type": "uint256"
        }
      ],
      "name": "ReputationUpdated",
      "type": "event"
    },
    {
      "anonymous": false,
      "inputs": [
        {
          "indexed": true,
          "internalType": "bytes32",
          "name": "uid",
          "type": "bytes32"
        },
        {
          "indexed": false,
          "internalType": "string",
          "name": "name",
          "type": "string"
        },
        {
          "indexed": true,
          "internalType": "address",
          "name": "resolver",
          "type": "address"
        }
      ],
      "name": "SchemaRegistered",
      "type": "event"
    },
    {
      "anonymous": false,
      "inputs": [
        {
          "indexed": false,
          "internalType": "address",
          "name": "account",
          "type": "address"
        }
      ],
      "name": "Unpaused",
      "type": "event"
    },
    {
      "inputs": [],
      "name": "AVG_BLOCK_TIME",
      "outputs": [
        {
          "internalType": "uint256",
          "name": "",
          "type": "uint256"
        }
      ],
      "stateMutability": "view",
      "type": "function"
    },
    {
      "inputs": [],
      "name": "MAX_ATTESTATION_FEE",
      "outputs": [
        {
          "internalType": "uint256",
          "name": "",
          "type": "uint256"
        }
      ],
      "stateMutability": "view",
      "type": "function"
    },
    {
      "inputs": [],
      "name": "MAX_SCHEMA_CREATION_FEE",
      "outputs": [
        {
          "internalType": "uint256",
          "name": "",
          "type": "uint256"
        }
      ],
      "stateMutability": "view",
      "type": "function"
    },
    {
      "inputs": [
        {
          "internalType": "address",
          "name": "",
          "type": "address"
        },
        {
          "internalType": "bytes32",
          "name": "",
          "type": "bytes32"
        }
      ],
      "name": "agentAttestationCount",
      "outputs": [
        {
          "internalType": "uint256",
          "name": "",
          "type": "uint256"
        }
      ],
      "stateMutability": "view",
      "type": "function"
    },
    {
      "inputs": [
        {
          "internalType": "bytes32",
          "name": "_schema",
          "type": "bytes32"
        },
        {
          "internalType": "address",
          "name": "_recipient",
          "type": "address"
        },
        {
          "internalType": "uint64",
          "name": "_expiration",
          "type": "uint64"
        },
        {
          "internalType": "bytes32",
          "name": "_refUID",
          "type": "bytes32"
        },
        {
          "internalType": "bytes",
          "name": "_data",
          "type": "bytes"
        }
      ],
      "name": "attest",
      "outputs": [
        {
          "internalType": "bytes32",
          "name": "uid",
          "type": "bytes32"
        }
      ],
      "stateMutability": "payable",
      "type": "function"
    },
    {
      "inputs": [],
      "name": "attestationFee",
      "outputs": [
        {
          "internalType": "uint256",
          "name": "",
          "type": "uint256"
        }
      ],
      "stateMutability": "view",
      "type": "function"
    },
    {
      "inputs": [
        {
          "internalType": "bytes32",
          "name": "",
          "type": "bytes32"
        }
      ],
      "name": "attestations",
      "outputs": [
        {
          "internalType": "bytes32",
          "name": "uid",
          "type": "bytes32"
        },
        {
          "internalType": "bytes32",
          "name": "schema",
          "type": "bytes32"
        },
        {
          "internalType": "address",
          "name": "recipient",
          "type": "address"
        },
        {
          "internalType": "address",
          "name": "attester",
          "type": "address"
        },
        {
          "internalType": "uint64",
          "name": "time",
          "type": "uint64"
        },
        {
          "internalType": "uint64",
          "name": "expiration",
          "type": "uint64"
        },
        {
          "internalType": "bool",
          "name": "revocable",
          "type": "bool"
        },
        {
          "internalType": "bytes32",
          "name": "refUID",
          "type": "bytes32"
        },
        {
          "internalType": "bytes",
          "name": "data",
          "type": "bytes"
        }
      ],
      "stateMutability": "view",
      "type": "function"
    },
    {
      "inputs": [
        {
          "internalType": "bytes32",
          "name": "",
          "type": "bytes32"
        },
        {
          "internalType": "uint256",
          "name": "",
          "type": "uint256"
        }
      ],
      "name": "attestationsBySchema",
      "outputs": [
        {
          "internalType": "bytes32",
          "name": "",
          "type": "bytes32"
        }
      ],
      "stateMutability": "view",
      "type": "function"
    },
    {
      "inputs": [],
      "name": "eip712Domain",
      "outputs": [
        {
          "internalType": "bytes1",
          "name": "fields",
          "type": "bytes1"
        },
        {
          "internalType": "string",
          "name": "name",
          "type": "string"
        },
        {
          "internalType": "string",
          "name": "version",
          "type": "string"
        },
        {
          "internalType": "uint256",
          "name": "chainId",
          "type": "uint256"
        },
        {
          "internalType": "address",
          "name": "verifyingContract",
          "type": "address"
        },
        {
          "internalType": "bytes32",
          "name": "salt",
          "type": "bytes32"
        },
        {
          "internalType": "uint256[]",
          "name": "extensions",
          "type": "uint256[]"
        }
      ],
      "stateMutability": "view",
      "type": "function"
    },
    {
      "inputs": [
        {
          "internalType": "address",
          "name": "_agent",
          "type": "address"
        },
        {
          "internalType": "bytes32",
          "name": "_schema",
          "type": "bytes32"
        }
      ],
      "name": "getAgentAttestations",
      "outputs": [
        {
          "internalType": "bytes32[]",
          "name": "",
          "type": "bytes32[]"
        }
      ],
      "stateMutability": "view",
      "type": "function"
    },
    {
      "inputs": [
        {
          "internalType": "address",
          "name": "_agent",
          "type": "address"
        }
      ],
      "name": "getReputationScore",
      "outputs": [
        {
          "internalType": "uint256",
          "name": "score",
          "type": "uint256"
        }
      ],
      "stateMutability": "view",
      "type": "function"
    },
    {
      "inputs": [
        {
          "internalType": "bytes32",
          "name": "_uid",
          "type": "bytes32"
        }
      ],
      "name": "isAttestationValid",
      "outputs": [
        {
          "internalType": "bool",
          "name": "",
          "type": "bool"
        }
      ],
      "stateMutability": "view",
      "type": "function"
    },
    {
      "inputs": [
        {
          "internalType": "address",
          "name": "",
          "type": "address"
        }
      ],
      "name": "nonces",
      "outputs": [
        {
          "internalType": "uint256",
          "name": "",
          "type": "uint256"
        }
      ],
      "stateMutability": "view",
      "type": "function"
    },
    {
      "inputs": [],
      "name": "owner",
      "outputs": [
        {
          "internalType": "address",
          "name": "",
          "type": "address"
        }
      ],
      "stateMutability": "view",
      "type": "function"
    },
    {
      "inputs": [],
      "name": "paused",
      "outputs": [
        {
          "internalType": "bool",
          "name": "",
          "type": "bool"
        }
      ],
      "stateMutability": "view",
      "type": "function"
    },
    {
      "inputs": [
        {
          "internalType": "address",
          "name": "",
          "type": "address"
        }
      ],
      "name": "profiles",
      "outputs": [
        {
          "internalType": "address",
          "name": "agentAddress",
          "type": "address"
        },
        {
          "internalType": "uint256",
          "name": "totalAttestations",
          "type": "uint256"
        },
        {
          "internalType": "uint256",
          "name": "totalAttesters",
          "type": "uint256"
        },
        {
          "internalType": "uint256",
          "name": "reputationScore",
          "type": "uint256"
        },
        {
          "internalType": "uint256",
          "name": "lastActivityBlock",
          "type": "uint256"
        },
        {
          "internalType": "bool",
          "name": "isVerified",
          "type": "bool"
        },
        {
          "internalType": "bytes32",
          "name": "identityAttestation",
          "type": "bytes32"
        }
      ],
      "stateMutability": "view",
      "type": "function"
    },
    {
      "inputs": [
        {
          "internalType": "string",
          "name": "_name",
          "type": "string"
        },
        {
          "internalType": "string",
          "name": "_description",
          "type": "string"
        },
        {
          "internalType": "bytes32",
          "name": "_schemaType",
          "type": "bytes32"
        },
        {
          "internalType": "address",
          "name": "_resolver",
          "type": "address"
        },
        {
          "internalType": "bool",
          "name": "_revocable",
          "type": "bool"
        }
      ],
      "name": "registerSchema",
      "outputs": [
        {
          "internalType": "bytes32",
          "name": "schemaUID",
          "type": "bytes32"
        }
      ],
      "stateMutability": "payable",
      "type": "function"
    },
    {
      "inputs": [],
      "name": "renounceOwnership",
      "outputs": [],
      "stateMutability": "nonpayable",
      "type": "function"
    },
    {
      "inputs": [
        {
          "internalType": "bytes32",
          "name": "_uid",
          "type": "bytes32"
        }
      ],
      "name": "revoke",
      "outputs": [],
      "stateMutability": "nonpayable",
      "type": "function"
    },
    {
      "inputs": [
        {
          "internalType": "bytes32",
          "name": "",
          "type": "bytes32"
        }
      ],
      "name": "revokedAttestations",
      "outputs": [
        {
          "internalType": "bool",
          "name": "",
          "type": "bool"
        }
      ],
      "stateMutability": "view",
      "type": "function"
    },
    {
      "inputs": [],
      "name": "schemaCreationFee",
      "outputs": [
        {
          "internalType": "uint256",
          "name": "",
          "type": "uint256"
        }
      ],
      "stateMutability": "view",
      "type": "function"
    },
    {
      "inputs": [
        {
          "internalType": "bytes32",
          "name": "",
          "type": "bytes32"
        }
      ],
      "name": "schemas",
      "outputs": [
        {
          "internalType": "bytes32",
          "name": "uid",
          "type": "bytes32"
        },
        {
          "internalType": "string",
          "name": "name",
          "type": "string"
        },
        {
          "internalType": "string",
          "name": "description",
          "type": "string"
        },
        {
          "internalType": "bytes32",
          "name": "schemaType",
          "type": "bytes32"
        },
        {
          "internalType": "address",
          "name": "resolver",
          "type": "address"
        },
        {
          "internalType": "bool",
          "name": "revocable",
          "type": "bool"
        },
        {
          "internalType": "uint256",
          "name": "attestationsCount",
          "type": "uint256"
        }
      ],
      "stateMutability": "view",
      "type": "function"
    },
    {
      "inputs": [
        {
          "internalType": "uint256",
          "name": "_attestationFee",
          "type": "uint256"
        },
        {
          "internalType": "uint256",
          "name": "_schemaCreationFee",
          "type": "uint256"
        }
      ],
      "name": "setFees",
      "outputs": [],
      "stateMutability": "nonpayable",
      "type": "function"
    },
    {
      "inputs": [],
      "name": "totalAttestations",
      "outputs": [
        {
          "internalType": "uint256",
          "name": "",
          "type": "uint256"
        }
      ],
      "stateMutability": "view",
      "type": "function"
    },
    {
      "inputs": [],
      "name": "totalSchemas",
      "outputs": [
        {
          "internalType": "uint256",
          "name": "",
          "type": "uint256"
        }
      ],
      "stateMutability": "view",
      "type": "function"
    },
    {
      "inputs": [
        {
          "internalType": "address",
          "name": "newOwner",
          "type": "address"
        }
      ],
      "name": "transferOwnership",
      "outputs": [],
      "stateMutability": "nonpayable",
      "type": "function"
    },
    {
      "inputs": [
        {
          "internalType": "address",
          "name": "_agent",
          "type": "address"
        },
        {
          "internalType": "bytes",
          "name": "_proof",
          "type": "bytes"
        }
      ],
      "name": "verifyAgentIdentity",
      "outputs": [
        {
          "internalType": "bytes32",
          "name": "uid",
          "type": "bytes32"
        }
      ],
      "stateMutability": "nonpayable",
      "type": "function"
    },
    {
      "inputs": [],
      "name": "withdrawFees",
      "outputs": [],
      "stateMutability": "nonpayable",
      "type": "function"
    }
  ],
  "bytecode": "0x61016060405266038d7ea4c68000600c55662386f26fc10000600d55348015610026575f80fd5b5060408051808201825260068152651055151154d560d21b602080830191909152825180840190935260018352603160f81b9083015290338061008357604051631e4fbdf760e01b81525f60048201526024015b60405180910390fd5b61008c81610165565b5060017f9b779b17422d0df92223018b32b4d1fa46e071723d6817e2486d003becc55f00556100bc8260016101b4565b610120526100cb8160026101b4565b61014052815160208084019190912060e052815190820120610100524660a05261015760e05161010051604080517f8b73c3c69bb8fe3d512ecc4cf759cc79239f7b179b0ffacaa9a75d522b39400f60208201529081019290925260608201524660808201523060a08201525f9060c00160405160208183030381529060405280519060200120905090565b60805250503060c0526103cd565b5f80546001600160a01b038381166001600160a01b0319831681178455604051919092169283917f8be0079c531659141344cd1fd0a4f28419497f9722a3daafe3b4186f6b6457e09190a35050565b5f6020835110156101cf576101c8836101e6565b90506101e0565b816101da84826102bb565b5060ff90505b92915050565b5f80829050601f81511115610210578260405163305a27a960e01b815260040161007a9190610375565b805161021b826103aa565b179392505050565b634e487b7160e01b5f52604160045260245ffd5b600181811c9082168061024b57607f821691505b60208210810361026957634e487b7160e01b5f52602260045260245ffd5b50919050565b601f8211156102b657805f5260205f20601f840160051c810160208510156102945750805b601f840160051c820191505b818110156102b3575f81556001016102a0565b50505b505050565b81516001600160401b038111156102d4576102d4610223565b6102e8816102e28454610237565b8461026f565b6020601f82116001811461031a575f83156103035750848201515b5f19600385901b1c1916600184901b1784556102b3565b5f84815260208120601f198516915b828110156103495787850151825560209485019460019092019101610329565b508482101561036657868401515f19600387901b60f8161c191681555b50505050600190811b01905550565b602081525f82518060208401528060208501604085015e5f604082850101526040601f19601f83011684010191505092915050565b80516020808301519190811015610269575f1960209190910360031b1b16919050565b60805160a05160c05160e0516101005161012051610140516125b161040f5f395f611b0901525f611ad701525f50505f50505f50505f50505f50506125b15ff3fe6080604052600436106101af575f3560e01c806375a67d5c116100e7578063b8c7724a11610087578063d17b2bd811610062578063d17b2bd814610558578063e30bb56314610577578063e7934a1114610596578063f2fde38b146105c2575f80fd5b8063b8c7724a1461046c578063bbe1562714610481578063ca2adef614610526575f80fd5b806385ba0592116100c257806385ba0592146103df5780638da5cb5b146103f3578063940992a314610419578063b75c7dc61461044d575f80fd5b806375a67d5c146103565780637ecebe001461038d57806384b0196e146103b8575f80fd5b80632f744aa5116101525780635fa2fc301161012d5780635fa2fc30146102c957806360485742146102f75780636df7fb691461030c578063715018a614610342575f80fd5b80632f744aa51461026d578063476343ee1461028c5780635c975abb146102a0575f80fd5b8063115977291161018d578063115977291461021757806317d379771461022c57806318336144146102475780632d268cb91461025a575f80fd5b806303e0435a146101b35780630844f712146101db5780630b78f9c0146101f6575b5f80fd5b3480156101be575f80fd5b506101c8600c5481565b6040519081526020015b60405180910390f35b3480156101e6575f80fd5b506101c8670de0b6b3a764000081565b348015610201575f80fd5b50610215610210366004611ec7565b6105e1565b005b348015610222575f80fd5b506101c8600d5481565b348015610237575f80fd5b506101c867016345785d8a000081565b6101c8610255366004611f46565b610706565b6101c8610268366004611fd2565b61075c565b348015610278575f80fd5b506101c861028736600461206c565b610b16565b348015610297575f80fd5b50610215610cc5565b3480156102ab575f80fd5b505f54600160a01b900460ff165b60405190151581526020016101d2565b3480156102d4575f80fd5b506102b96102e33660046120ba565b60086020525f908152604090205460ff1681565b348015610302575f80fd5b506101c8600a5481565b348015610317575f80fd5b506101c86103263660046120d1565b600760209081525f928352604080842090915290825290205481565b34801561034d575f80fd5b50610215610df0565b348015610361575f80fd5b506101c86103703660046120f9565b6001600160a01b03165f9081526005602052604090206003015490565b348015610398575f80fd5b506101c86103a73660046120f9565b60096020525f908152604090205481565b3480156103c3575f80fd5b506103cc610e01565b6040516101d29796959493929190612147565b3480156103ea575f80fd5b506101c8600c81565b3480156103fe575f80fd5b505f546040516001600160a01b0390911681526020016101d2565b348015610424575f80fd5b506104386104333660046120ba565b610e43565b6040516101d2999897969594939291906121dd565b348015610458575f80fd5b506102156104673660046120ba565b610f35565b348015610477575f80fd5b506101c8600b5481565b34801561048c575f80fd5b506104e561049b3660046120f9565b600560208190525f918252604090912080546001820154600283015460038401546004850154958501546006909501546001600160a01b03909416959294919390929160ff169087565b604080516001600160a01b03909816885260208801969096529486019390935260608501919091526080840152151560a083015260c082015260e0016101d2565b348015610531575f80fd5b506105456105403660046120ba565b611112565b6040516101d2979695949392919061224c565b348015610563575f80fd5b506101c8610572366004611ec7565b611269565b348015610582575f80fd5b506102b96105913660046120ba565b611294565b3480156105a1575f80fd5b506105b56105b03660046120d1565b61130d565b6040516101d291906122a6565b3480156105cd575f80fd5b506102156105dc3660046120f9565b6114bb565b6105e96114f8565b67016345785d8a00008211156106565760405162461bcd60e51b815260206004820152602760248201527f4154544553543a204174746573746174696f6e206665652065786365656473206044820152666d6178696d756d60c81b60648201526084015b60405180910390fd5b670de0b6b3a76400008111156106b95760405162461bcd60e51b815260206004820152602260248201527f4154544553543a20536368656d61206665652065786365656473206d6178696d604482015261756d60f01b606482015260840161064d565b600c829055600d8190556040805183815260208101839052428183015290517fcf8a1e1d5f09cf3c97dbb653cd9a4d7aace9292fbc1bb8211febf2d400febbdd9181900360600190a15050565b5f61070f611524565b6107518787878787878080601f0160208091040260200160405190810160405280939291908181526020018383808284375f9201919091525061154e92505050565b979650505050505050565b5f610765611524565b600d543410156107b25760405162461bcd60e51b81526020600482015260186024820152774154544553543a20496e73756666696369656e742066656560401b604482015260640161064d565b866107f75760405162461bcd60e51b81526020600482015260156024820152741055151154d50e8813985b59481c995c5d5a5c9959605a1b604482015260640161064d565b836108445760405162461bcd60e51b815260206004820152601b60248201527f4154544553543a20496e76616c696420736368656d6120747970650000000000604482015260640161064d565b846108915760405162461bcd60e51b815260206004820152601c60248201527f4154544553543a204465736372697074696f6e20726571756972656400000000604482015260640161064d565b6001600160a01b038316156108fb57823b806108f95760405162461bcd60e51b815260206004820152602160248201527f4154544553543a205265736f6c766572206d75737420626520636f6e747261636044820152601d60fa1b606482015260840161064d565b505b87878533436040516020016109149594939291906122e8565b60408051601f1981840301815291815281516020928301205f8181526004909352912054909150156109805760405162461bcd60e51b81526020600482015260156024820152744154544553543a20536368656d612065786973747360581b604482015260640161064d565b6040518060e0016040528082815260200189898080601f0160208091040260200160405190810160405280939291908181526020018383808284375f92019190915250505090825250604080516020601f8a01819004810282018101909252888152918101919089908990819084018382808284375f92018290525093855250505060208083018890526001600160a01b038716604080850191909152861515606085015260809093018290528482526004815291902082518155908201516001820190610a4e90826123b1565b5060408201516002820190610a6390826123b1565b5060608201516003820155608082015160048201805460a08501511515600160a01b026001600160a81b03199091166001600160a01b039093169290921791909117905560c090910151600590910155600b8054905f610ac28361247f565b9190505550826001600160a01b0316817fe1de970d17b45f7e907a7d4a1b40501d574c2d5ac3426c2ac4acb06f43c1b35a8a8a604051610b03929190612497565b60405180910390a3979650505050505050565b5f610b1f6114f8565b610b27611524565b6001600160a01b038416610b7d5760405162461bcd60e51b815260206004820152601760248201527f4154544553543a20496e76616c69642061646472657373000000000000000000604482015260640161064d565b6001600160a01b0384165f908152600560208190526040909120015460ff1615610be95760405162461bcd60e51b815260206004820152601860248201527f4154544553543a20416c72656164792076657269666965640000000000000000604482015260640161064d565b5f7fe1323f2201aae928f2e4b8b9bbf1f71aeb46e21bc832a30435d4e2d7284ac0559050610c5181865f805f1b88888080601f0160208091040260200160405190810160405280939291908181526020018383808284375f9201919091525061154e92505050565b6001600160a01b0386165f81815260056020819052604091829020908101805460ff191660011790556006018390555191935083917f7e692ba95d5e34d9a98e00d2e2e2154f771efd4c9d5cb41a8baac53dbff55f1d90610cb59042815260200190565b60405180910390a3509392505050565b610ccd6114f8565b610cd5611a53565b4780610d235760405162461bcd60e51b815260206004820152601b60248201527f4154544553543a204e6f206665657320746f2077697468647261770000000000604482015260640161064d565b5f80546040516001600160a01b039091169083908381818185875af1925050503d805f8114610d6d576040519150601f19603f3d011682016040523d82523d5f602084013e610d72565b606091505b5050905080610dc35760405162461bcd60e51b815260206004820152601d60248201527f4154544553543a20466565207769746864726177616c206661696c6564000000604482015260640161064d565b5050610dee60017f9b779b17422d0df92223018b32b4d1fa46e071723d6817e2486d003becc55f0055565b565b610df86114f8565b610dee5f611a81565b5f6060805f805f6060610e12611ad0565b610e1a611b02565b604080515f80825260208201909252600f60f81b9b939a50919850469750309650945092509050565b600360208190525f91825260409091208054600182015460028301549383015460048401546005850154600686018054959794966001600160a01b0395861696958516956001600160401b03600160a01b90960486169585169460ff600160401b90910416939290610eb49061232d565b80601f0160208091040260200160405190810160405280929190818152602001828054610ee09061232d565b8015610f2b5780601f10610f0257610100808354040283529160200191610f2b565b820191905f5260205f20905b815481529060010190602001808311610f0e57829003601f168201915b5050505050905089565b610f3d611524565b5f8181526003602052604090208054610f8c5760405162461bcd60e51b81526020600482015260116024820152701055151154d50e88139bdd08199bdd5b99607a1b604482015260640161064d565b6004810154600160401b900460ff16610fdf5760405162461bcd60e51b81526020600482015260156024820152744154544553543a204e6f74207265766f6361626c6560581b604482015260640161064d565b60038101546001600160a01b03163314806110125750336110075f546001600160a01b031690565b6001600160a01b0316145b6110575760405162461bcd60e51b81526020600482015260166024820152751055151154d50e88139bdd08185d5d1a1bdc9a5e995960521b604482015260640161064d565b5f8281526008602052604090205460ff16156110b55760405162461bcd60e51b815260206004820152601760248201527f4154544553543a20416c7265616479207265766f6b6564000000000000000000604482015260640161064d565b5f82815260086020908152604091829020805460ff191660011790559051426001600160401b03168152339184917f014a9da78431eab4961d8a85376a12378cc5561ed30f9ff4e5dc35ae0dcca943910160405180910390a35050565b60046020525f9081526040902080546001820180549192916111339061232d565b80601f016020809104026020016040519081016040528092919081815260200182805461115f9061232d565b80156111aa5780601f10611181576101008083540402835291602001916111aa565b820191905f5260205f20905b81548152906001019060200180831161118d57829003601f168201915b5050505050908060020180546111bf9061232d565b80601f01602080910402602001604051908101604052809291908181526020018280546111eb9061232d565b80156112365780601f1061120d57610100808354040283529160200191611236565b820191905f5260205f20905b81548152906001019060200180831161121957829003601f168201915b5050505060038301546004840154600590940154929390926001600160a01b0382169250600160a01b90910460ff169087565b6006602052815f5260405f208181548110611282575f80fd5b905f5260205f20015f91509150505481565b5f81815260036020526040812080546112af57505f92915050565b5f8381526008602052604090205460ff16156112cd57505f92915050565b60048101546001600160401b0316158015906112f757506004810154426001600160401b03909116105b1561130457505f92915050565b50600192915050565b5f81815260066020908152604080832080548251818502810185019093528083526060949383018282801561135f57602002820191905f5260205f20905b81548152602001906001019080831161134b575b5050506001600160a01b0387165f908152600760209081526040808320898452909152812054939450929150506001600160401b038111156113a3576113a3612319565b6040519080825280602002602001820160405280156113cc578160200160208202803683370190505b5090505f805b83518110156114ae57866001600160a01b031660035f8684815181106113fa576113fa6124c5565b60209081029190910181015182528101919091526040015f20600201546001600160a01b031614801561145c575060085f85838151811061143d5761143d6124c5565b60209081029190910181015182528101919091526040015f205460ff16155b156114a657838181518110611473576114736124c5565b602002602001015183838151811061148d5761148d6124c5565b6020908102919091010152816114a28161247f565b9250505b6001016113d2565b5090925050505b92915050565b6114c36114f8565b6001600160a01b0381166114ec57604051631e4fbdf760e01b81525f600482015260240161064d565b6114f581611a81565b50565b5f546001600160a01b03163314610dee5760405163118cdaa760e01b815233600482015260240161064d565b5f54600160a01b900460ff1615610dee5760405163d93c066560e01b815260040160405180910390fd5b5f600c5434101561159c5760405162461bcd60e51b81526020600482015260186024820152774154544553543a20496e73756666696369656e742066656560401b604482015260640161064d565b6001600160a01b0385166115f25760405162461bcd60e51b815260206004820152601960248201527f4154544553543a20496e76616c696420726563697069656e7400000000000000604482015260640161064d565b5f8681526004602052604090205461164c5760405162461bcd60e51b815260206004820152601860248201527f4154544553543a20536368656d61206e6f7420666f756e640000000000000000604482015260640161064d565b5f868152600460208190526040909120908101546001600160a01b03161561172c5760048082015460405163cf8c78bd60e01b81526001600160a01b039091169163cf8c78bd916116a1918a918891016124d9565b602060405180830381865afa1580156116bc573d5f803e3d5ffd5b505050506040513d601f19601f820116820180604052508101906116e09190612504565b61172c5760405162461bcd60e51b815260206004820152601960248201527f4154544553543a205265736f6c7665722072656a656374656400000000000000604482015260640161064d565b600a5460408051602081018a90526bffffffffffffffffffffffff1960608a811b8216938301939093523390921b9091166054820152426068820152608881019190915260a80160408051601f1981840301815291815281516020928301205f8181526003909352912054909250156117df5760405162461bcd60e51b815260206004820152601560248201527420aa2a22a9aa1d102aa4a21031b7b63634b9b4b7b760591b604482015260640161064d565b604051806101200160405280838152602001888152602001876001600160a01b03168152602001336001600160a01b03168152602001426001600160401b03168152602001866001600160401b031681526020018260040160149054906101000a900460ff16151581526020018581526020018481525060035f8481526020019081526020015f205f820151815f0155602082015181600101556040820151816002015f6101000a8154816001600160a01b0302191690836001600160a01b031602179055506060820151816003015f6101000a8154816001600160a01b0302191690836001600160a01b0316021790555060808201518160030160146101000a8154816001600160401b0302191690836001600160401b0316021790555060a0820151816004015f6101000a8154816001600160401b0302191690836001600160401b0316021790555060c08201518160040160086101000a81548160ff02191690831515021790555060e0820151816005015561010082015181600601908161196a91906123b1565b5050600a805491505f61197c8361247f565b90915550505f8781526006602090815260408083208054600181018255908452828420018590556001600160a01b0389168352600782528083208a845290915281208054916119ca8361247f565b91905055506119d886611b2f565b5f8781526004602052604081206005018054916119f48361247f565b9091555050604080513381526001600160401b03421660208201526001600160a01b03881691899185917fd99a95b347a16eb3f336d158d29d353955bf813af1d5b551d0f08a24e3fd3c8d910160405180910390a45095945050505050565b611a5b611be2565b60027f9b779b17422d0df92223018b32b4d1fa46e071723d6817e2486d003becc55f0055565b5f80546001600160a01b038381166001600160a01b0319831681178455604051919092169283917f8be0079c531659141344cd1fd0a4f28419497f9722a3daafe3b4186f6b6457e09190a35050565b6060611afd7f00000000000000000000000000000000000000000000000000000000000000006001611c24565b905090565b6060611afd7f00000000000000000000000000000000000000000000000000000000000000006002611c24565b6001600160a01b038082165f9081526005602052604090208054909116611b6a5780546001600160a01b0319166001600160a01b0383161781555b600181018054905f611b7b8361247f565b90915550504360048201555f611b9083611ccd565b60038301819055604080518281524260208201529192506001600160a01b038516917f5b88a2e3fc1a53234357ab78c104df11c33ccfa79886793654565ad70b8afb6e910160405180910390a2505050565b7f9b779b17422d0df92223018b32b4d1fa46e071723d6817e2486d003becc55f0054600203610dee57604051633ee5aeb560e01b815260040160405180910390fd5b606060ff8314611c3e57611c3783611e63565b90506114b5565b818054611c4a9061232d565b80601f0160208091040260200160405190810160405280929190818152602001828054611c769061232d565b8015611cc15780601f10611c9857610100808354040283529160200191611cc1565b820191905f5260205f20905b815481529060010190602001808311611ca457829003601f168201915b505050505090506114b5565b6001600160a01b0381165f90815260056020526040812060018101548203611cf757505f92915050565b5f81600101546064611d09919061251f565b6001830154909150611d1c606483612536565b14611d695760405162461bcd60e51b815260206004820152601e60248201527f4154544553543a204f766572666c6f7720696e2073636f72652063616c630000604482015260640161064d565b611d75816107d0612555565b90505f82600201546101f4611d8a919061251f565b6002840154909150611d9e6101f483612536565b14611df65760405162461bcd60e51b815260206004820152602260248201527f4154544553543a204f766572666c6f7720696e206469766572736974792063616044820152616c6360f01b606482015260840161064d565b611e008183612555565b91505f611e11600c62278d00612536565b90505f81856004015443611e259190612568565b10611e30575f611e34565b6103e85b61ffff169050611e448185612555565b93506127108411611e555783610751565b612710979650505050505050565b60605f611e6f83611ea0565b6040805160208082528183019092529192505f91906020820181803683375050509182525060208101929092525090565b5f60ff8216601f8111156114b557604051632cd44ac360e21b815260040160405180910390fd5b5f8060408385031215611ed8575f80fd5b50508035926020909101359150565b80356001600160a01b0381168114611efd575f80fd5b919050565b5f8083601f840112611f12575f80fd5b5081356001600160401b03811115611f28575f80fd5b602083019150836020828501011115611f3f575f80fd5b9250929050565b5f805f805f8060a08789031215611f5b575f80fd5b86359550611f6b60208801611ee7565b945060408701356001600160401b0381168114611f86575f80fd5b93506060870135925060808701356001600160401b03811115611fa7575f80fd5b611fb389828a01611f02565b979a9699509497509295939492505050565b80151581146114f5575f80fd5b5f805f805f805f60a0888a031215611fe8575f80fd5b87356001600160401b03811115611ffd575f80fd5b6120098a828b01611f02565b90985096505060208801356001600160401b03811115612027575f80fd5b6120338a828b01611f02565b9096509450506040880135925061204c60608901611ee7565b9150608088013561205c81611fc5565b8091505092959891949750929550565b5f805f6040848603121561207e575f80fd5b61208784611ee7565b925060208401356001600160401b038111156120a1575f80fd5b6120ad86828701611f02565b9497909650939450505050565b5f602082840312156120ca575f80fd5b5035919050565b5f80604083850312156120e2575f80fd5b6120eb83611ee7565b946020939093013593505050565b5f60208284031215612109575f80fd5b61211282611ee7565b9392505050565b5f81518084528060208401602086015e5f602082860101526020601f19601f83011685010191505092915050565b60ff60f81b8816815260e060208201525f61216560e0830189612119565b82810360408401526121778189612119565b606084018890526001600160a01b038716608085015260a0840186905283810360c0850152845180825260208087019350909101905f5b818110156121cc5783518352602093840193909201916001016121ae565b50909b9a5050505050505050505050565b898152602081018990526001600160a01b038881166040830152871660608201526001600160401b038681166080830152851660a082015283151560c082015260e0810183905261012061010082018190525f9061223d90830184612119565b9b9a5050505050505050505050565b87815260e060208201525f61226460e0830189612119565b82810360408401526122768189612119565b606084019790975250506001600160a01b0393909316608084015290151560a083015260c0909101529392505050565b602080825282518282018190525f918401906040840190835b818110156122dd5783518352602093840193909201916001016122bf565b509095945050505050565b8486823790930191825260601b6bffffffffffffffffffffffff191660208201526034810191909152605401919050565b634e487b7160e01b5f52604160045260245ffd5b600181811c9082168061234157607f821691505b60208210810361235f57634e487b7160e01b5f52602260045260245ffd5b50919050565b601f8211156123ac57805f5260205f20601f840160051c8101602085101561238a5750805b601f840160051c820191505b818110156123a9575f8155600101612396565b50505b505050565b81516001600160401b038111156123ca576123ca612319565b6123de816123d8845461232d565b84612365565b6020601f821160018114612410575f83156123f95750848201515b5f19600385901b1c1916600184901b1784556123a9565b5f84815260208120601f198516915b8281101561243f578785015182556020948501946001909201910161241f565b508482101561245c57868401515f19600387901b60f8161c191681555b50505050600190811b01905550565b634e487b7160e01b5f52601160045260245ffd5b5f600182016124905761249061246b565b5060010190565b60208152816020820152818360408301375f818301604090810191909152601f909201601f19160101919050565b634e487b7160e01b5f52603260045260245ffd5b6001600160a01b03831681526040602082018190525f906124fc90830184612119565b949350505050565b5f60208284031215612514575f80fd5b815161211281611fc5565b80820281158282048414176114b5576114b561246b565b5f8261255057634e487b7160e01b5f52601260045260245ffd5b500490565b808201808211156114b5576114b561246b565b818103818111156114b5576114b561246b56fea2646970667358221220e85e0e0109e0f4a006a5dbf95ed782e55ee5cf083bab2eddb5366cc90a50bdad64736f6c634300081a0033",
  "linkReferences": {},
  "deployedLinkReferences": {}
}